{
  "_format": "hh-sol-artifact-1",
  "contractName": "DungeonToken",
  "sourceName": "contracts/DungeonToken.sol",
  "abi": [
    {
      "inputs": [],
      "stateMutability": "nonpayable",
      "type": "constructor"
    },
    {
      "anonymous": false,
      "inputs": [
        {
          "indexed": true,
          "internalType": "address",
          "name": "owner",
          "type": "address"
        },
        {
          "indexed": true,
          "internalType": "address",
          "name": "spender",
          "type": "address"
        },
        {
          "indexed": false,
          "internalType": "uint256",
          "name": "value",
          "type": "uint256"
        }
      ],
      "name": "Approval",
      "type": "event"
    },
    {
      "anonymous": false,
      "inputs": [
        {
          "indexed": true,
          "internalType": "address",
          "name": "from",
          "type": "address"
        },
        {
          "indexed": true,
          "internalType": "address",
          "name": "to",
          "type": "address"
        },
        {
          "indexed": false,
          "internalType": "uint256",
          "name": "value",
          "type": "uint256"
        }
      ],
      "name": "Transfer",
      "type": "event"
    },
    {
      "inputs": [
        {
          "internalType": "address",
          "name": "owner",
          "type": "address"
        },
        {
          "internalType": "address",
          "name": "spender",
          "type": "address"
        }
      ],
      "name": "allowance",
      "outputs": [
        {
          "internalType": "uint256",
          "name": "",
          "type": "uint256"
        }
      ],
      "stateMutability": "view",
      "type": "function"
    },
    {
      "inputs": [
        {
          "internalType": "address",
          "name": "spender",
          "type": "address"
        },
        {
          "internalType": "uint256",
          "name": "amount",
          "type": "uint256"
        }
      ],
      "name": "approve",
      "outputs": [
        {
          "internalType": "bool",
          "name": "",
          "type": "bool"
        }
      ],
      "stateMutability": "nonpayable",
      "type": "function"
    },
    {
      "inputs": [
        {
          "internalType": "address",
          "name": "account",
          "type": "address"
        }
      ],
      "name": "balanceOf",
      "outputs": [
        {
          "internalType": "uint256",
          "name": "",
          "type": "uint256"
        }
      ],
      "stateMutability": "view",
      "type": "function"
    },
    {
      "inputs": [],
      "name": "charge",
      "outputs": [],
      "stateMutability": "nonpayable",
      "type": "function"
    },
    {
      "inputs": [],
      "name": "decimals",
      "outputs": [
        {
          "internalType": "uint8",
          "name": "",
          "type": "uint8"
        }
      ],
      "stateMutability": "view",
      "type": "function"
    },
    {
      "inputs": [
        {
          "internalType": "address",
          "name": "spender",
          "type": "address"
        },
        {
          "internalType": "uint256",
          "name": "subtractedValue",
          "type": "uint256"
        }
      ],
      "name": "decreaseAllowance",
      "outputs": [
        {
          "internalType": "bool",
          "name": "",
          "type": "bool"
        }
      ],
      "stateMutability": "nonpayable",
      "type": "function"
    },
    {
      "inputs": [],
      "name": "faucet",
      "outputs": [],
      "stateMutability": "nonpayable",
      "type": "function"
    },
    {
      "inputs": [
        {
          "internalType": "address",
          "name": "spender",
          "type": "address"
        },
        {
          "internalType": "uint256",
          "name": "addedValue",
          "type": "uint256"
        }
      ],
      "name": "increaseAllowance",
      "outputs": [
        {
          "internalType": "bool",
          "name": "",
          "type": "bool"
        }
      ],
      "stateMutability": "nonpayable",
      "type": "function"
    },
    {
      "inputs": [],
      "name": "name",
      "outputs": [
        {
          "internalType": "string",
          "name": "",
          "type": "string"
        }
      ],
      "stateMutability": "view",
      "type": "function"
    },
    {
      "inputs": [
        {
          "internalType": "address",
          "name": "_to",
          "type": "address"
        }
      ],
      "name": "reward",
      "outputs": [],
      "stateMutability": "nonpayable",
      "type": "function"
    },
    {
      "inputs": [],
      "name": "symbol",
      "outputs": [
        {
          "internalType": "string",
          "name": "",
          "type": "string"
        }
      ],
      "stateMutability": "view",
      "type": "function"
    },
    {
      "inputs": [],
      "name": "totalSupply",
      "outputs": [
        {
          "internalType": "uint256",
          "name": "",
          "type": "uint256"
        }
      ],
      "stateMutability": "view",
      "type": "function"
    },
    {
      "inputs": [
        {
          "internalType": "address",
          "name": "to",
          "type": "address"
        },
        {
          "internalType": "uint256",
          "name": "amount",
          "type": "uint256"
        }
      ],
      "name": "transfer",
      "outputs": [
        {
          "internalType": "bool",
          "name": "",
          "type": "bool"
        }
      ],
      "stateMutability": "nonpayable",
      "type": "function"
    },
    {
      "inputs": [
        {
          "internalType": "address",
          "name": "from",
          "type": "address"
        },
        {
          "internalType": "address",
          "name": "to",
          "type": "address"
        },
        {
          "internalType": "uint256",
          "name": "amount",
          "type": "uint256"
        }
      ],
      "name": "transferFrom",
      "outputs": [
        {
          "internalType": "bool",
          "name": "",
          "type": "bool"
        }
      ],
      "stateMutability": "nonpayable",
      "type": "function"
    }
  ],
  "bytecode": "0x60806040523480156200001157600080fd5b506040518060400160405280600781526020017f44756e67656f6e000000000000000000000000000000000000000000000000008152506040518060400160405280600381526020017f44474e0000000000000000000000000000000000000000000000000000000000815250816003908051906020019062000096929190620000b8565b508060049080519060200190620000af929190620000b8565b505050620001cd565b828054620000c69062000168565b90600052602060002090601f016020900481019282620000ea576000855562000136565b82601f106200010557805160ff191683800117855562000136565b8280016001018555821562000136579182015b828111156200013557825182559160200191906001019062000118565b5b50905062000145919062000149565b5090565b5b80821115620001645760008160009055506001016200014a565b5090565b600060028204905060018216806200018157607f821691505b602082108114156200019857620001976200019e565b5b50919050565b7f4e487b7100000000000000000000000000000000000000000000000000000000600052602260045260246000fd5b6114cf80620001dd6000396000f3fe608060405234801561001057600080fd5b50600436106100ea5760003560e01c80636353586b1161008c578063a457c2d711610066578063a457c2d71461024d578063a9059cbb1461027d578063dd62ed3e146102ad578063de5f72fd146102dd576100ea565b80636353586b146101e357806370a08231146101ff57806395d89b411461022f576100ea565b806323b872dd116100c857806323b872dd1461015b578063313ce5671461018b57806339509351146101a957806355161913146101d9576100ea565b806306fdde03146100ef578063095ea7b31461010d57806318160ddd1461013d575b600080fd5b6100f76102e7565b6040516101049190610f4c565b60405180910390f35b61012760048036038101906101229190610d77565b610379565b6040516101349190610f31565b60405180910390f35b61014561039c565b604051610152919061106e565b60405180910390f35b61017560048036038101906101709190610d28565b6103a6565b6040516101829190610f31565b60405180910390f35b6101936103d5565b6040516101a09190611089565b60405180910390f35b6101c360048036038101906101be9190610d77565b6103de565b6040516101d09190610f31565b60405180910390f35b6101e1610415565b005b6101fd60048036038101906101f89190610cc3565b61042b565b005b61021960048036038101906102149190610cc3565b610440565b604051610226919061106e565b60405180910390f35b610237610488565b6040516102449190610f4c565b60405180910390f35b61026760048036038101906102629190610d77565b61051a565b6040516102749190610f31565b60405180910390f35b61029760048036038101906102929190610d77565b610591565b6040516102a49190610f31565b60405180910390f35b6102c760048036038101906102c29190610cec565b6105b4565b6040516102d4919061106e565b60405180910390f35b6102e561063b565b005b6060600380546102f69061119e565b80601f01602080910402602001604051908101604052809291908181526020018280546103229061119e565b801561036f5780601f106103445761010080835404028352916020019161036f565b820191906000526020600020905b81548152906001019060200180831161035257829003601f168201915b5050505050905090565b60008061038461064f565b9050610391818585610657565b600191505092915050565b6000600254905090565b6000806103b161064f565b90506103be858285610822565b6103c98585856108ae565b60019150509392505050565b60006012905090565b6000806103e961064f565b905061040a8185856103fb85896105b4565b61040591906110c0565b610657565b600191505092915050565b6104283330674563918244f400006103a6565b50565b61043d81673782dace9d900000610b2f565b50565b60008060008373ffffffffffffffffffffffffffffffffffffffff1673ffffffffffffffffffffffffffffffffffffffff168152602001908152602001600020549050919050565b6060600480546104979061119e565b80601f01602080910402602001604051908101604052809291908181526020018280546104c39061119e565b80156105105780601f106104e557610100808354040283529160200191610510565b820191906000526020600020905b8154815290600101906020018083116104f357829003601f168201915b5050505050905090565b60008061052561064f565b9050600061053382866105b4565b905083811015610578576040517f08c379a000000000000000000000000000000000000000000000000000000000815260040161056f9061102e565b60405180910390fd5b6105858286868403610657565b60019250505092915050565b60008061059c61064f565b90506105a98185856108ae565b600191505092915050565b6000600160008473ffffffffffffffffffffffffffffffffffffffff1673ffffffffffffffffffffffffffffffffffffffff16815260200190815260200160002060008373ffffffffffffffffffffffffffffffffffffffff1673ffffffffffffffffffffffffffffffffffffffff16815260200190815260200160002054905092915050565b61064d33678ac7230489e80000610b2f565b565b600033905090565b600073ffffffffffffffffffffffffffffffffffffffff168373ffffffffffffffffffffffffffffffffffffffff1614156106c7576040517f08c379a00000000000000000000000000000000000000000000000000000000081526004016106be9061100e565b60405180910390fd5b600073ffffffffffffffffffffffffffffffffffffffff168273ffffffffffffffffffffffffffffffffffffffff161415610737576040517f08c379a000000000000000000000000000000000000000000000000000000000815260040161072e90610f8e565b60405180910390fd5b80600160008573ffffffffffffffffffffffffffffffffffffffff1673ffffffffffffffffffffffffffffffffffffffff16815260200190815260200160002060008473ffffffffffffffffffffffffffffffffffffffff1673ffffffffffffffffffffffffffffffffffffffff168152602001908152602001600020819055508173ffffffffffffffffffffffffffffffffffffffff168373ffffffffffffffffffffffffffffffffffffffff167f8c5be1e5ebec7d5bd14f71427d1e84f3dd0314c0f7b2291e5b200ac8c7c3b92583604051610815919061106e565b60405180910390a3505050565b600061082e84846105b4565b90507fffffffffffffffffffffffffffffffffffffffffffffffffffffffffffffffff81146108a8578181101561089a576040517f08c379a000000000000000000000000000000000000000000000000000000000815260040161089190610fae565b60405180910390fd5b6108a78484848403610657565b5b50505050565b600073ffffffffffffffffffffffffffffffffffffffff168373ffffffffffffffffffffffffffffffffffffffff16141561091e576040517f08c379a000000000000000000000000000000000000000000000000000000000815260040161091590610fee565b60405180910390fd5b600073ffffffffffffffffffffffffffffffffffffffff168273ffffffffffffffffffffffffffffffffffffffff16141561098e576040517f08c379a000000000000000000000000000000000000000000000000000000000815260040161098590610f6e565b60405180910390fd5b610999838383610c8f565b60008060008573ffffffffffffffffffffffffffffffffffffffff1673ffffffffffffffffffffffffffffffffffffffff16815260200190815260200160002054905081811015610a1f576040517f08c379a0000000000000000000000000000000000000000000000000000000008152600401610a1690610fce565b60405180910390fd5b8181036000808673ffffffffffffffffffffffffffffffffffffffff1673ffffffffffffffffffffffffffffffffffffffff16815260200190815260200160002081905550816000808573ffffffffffffffffffffffffffffffffffffffff1673ffffffffffffffffffffffffffffffffffffffff1681526020019081526020016000206000828254610ab291906110c0565b925050819055508273ffffffffffffffffffffffffffffffffffffffff168473ffffffffffffffffffffffffffffffffffffffff167fddf252ad1be2c89b69c2b068fc378daa952ba7f163c4a11628f55a4df523b3ef84604051610b16919061106e565b60405180910390a3610b29848484610c94565b50505050565b600073ffffffffffffffffffffffffffffffffffffffff168273ffffffffffffffffffffffffffffffffffffffff161415610b9f576040517f08c379a0000000000000000000000000000000000000000000000000000000008152600401610b969061104e565b60405180910390fd5b610bab60008383610c8f565b8060026000828254610bbd91906110c0565b92505081905550806000808473ffffffffffffffffffffffffffffffffffffffff1673ffffffffffffffffffffffffffffffffffffffff1681526020019081526020016000206000828254610c1291906110c0565b925050819055508173ffffffffffffffffffffffffffffffffffffffff16600073ffffffffffffffffffffffffffffffffffffffff167fddf252ad1be2c89b69c2b068fc378daa952ba7f163c4a11628f55a4df523b3ef83604051610c77919061106e565b60405180910390a3610c8b60008383610c94565b5050565b505050565b505050565b600081359050610ca88161146b565b92915050565b600081359050610cbd81611482565b92915050565b600060208284031215610cd557600080fd5b6000610ce384828501610c99565b91505092915050565b60008060408385031215610cff57600080fd5b6000610d0d85828601610c99565b9250506020610d1e85828601610c99565b9150509250929050565b600080600060608486031215610d3d57600080fd5b6000610d4b86828701610c99565b9350506020610d5c86828701610c99565b9250506040610d6d86828701610cae565b9150509250925092565b60008060408385031215610d8a57600080fd5b6000610d9885828601610c99565b9250506020610da985828601610cae565b9150509250929050565b610dbc81611128565b82525050565b6000610dcd826110a4565b610dd781856110af565b9350610de781856020860161116b565b610df08161122e565b840191505092915050565b6000610e086023836110af565b9150610e138261123f565b604082019050919050565b6000610e2b6022836110af565b9150610e368261128e565b604082019050919050565b6000610e4e601d836110af565b9150610e59826112dd565b602082019050919050565b6000610e716026836110af565b9150610e7c82611306565b604082019050919050565b6000610e946025836110af565b9150610e9f82611355565b604082019050919050565b6000610eb76024836110af565b9150610ec2826113a4565b604082019050919050565b6000610eda6025836110af565b9150610ee5826113f3565b604082019050919050565b6000610efd601f836110af565b9150610f0882611442565b602082019050919050565b610f1c81611154565b82525050565b610f2b8161115e565b82525050565b6000602082019050610f466000830184610db3565b92915050565b60006020820190508181036000830152610f668184610dc2565b905092915050565b60006020820190508181036000830152610f8781610dfb565b9050919050565b60006020820190508181036000830152610fa781610e1e565b9050919050565b60006020820190508181036000830152610fc781610e41565b9050919050565b60006020820190508181036000830152610fe781610e64565b9050919050565b6000602082019050818103600083015261100781610e87565b9050919050565b6000602082019050818103600083015261102781610eaa565b9050919050565b6000602082019050818103600083015261104781610ecd565b9050919050565b6000602082019050818103600083015261106781610ef0565b9050919050565b60006020820190506110836000830184610f13565b92915050565b600060208201905061109e6000830184610f22565b92915050565b600081519050919050565b600082825260208201905092915050565b60006110cb82611154565b91506110d683611154565b9250827fffffffffffffffffffffffffffffffffffffffffffffffffffffffffffffffff0382111561110b5761110a6111d0565b5b828201905092915050565b600061112182611134565b9050919050565b60008115159050919050565b600073ffffffffffffffffffffffffffffffffffffffff82169050919050565b6000819050919050565b600060ff82169050919050565b60005b8381101561118957808201518184015260208101905061116e565b83811115611198576000848401525b50505050565b600060028204905060018216806111b657607f821691505b602082108114156111ca576111c96111ff565b5b50919050565b7f4e487b7100000000000000000000000000000000000000000000000000000000600052601160045260246000fd5b7f4e487b7100000000000000000000000000000000000000000000000000000000600052602260045260246000fd5b6000601f19601f8301169050919050565b7f45524332303a207472616e7366657220746f20746865207a65726f206164647260008201527f6573730000000000000000000000000000000000000000000000000000000000602082015250565b7f45524332303a20617070726f766520746f20746865207a65726f20616464726560008201527f7373000000000000000000000000000000000000000000000000000000000000602082015250565b7f45524332303a20696e73756666696369656e7420616c6c6f77616e6365000000600082015250565b7f45524332303a207472616e7366657220616d6f756e742065786365656473206260008201527f616c616e63650000000000000000000000000000000000000000000000000000602082015250565b7f45524332303a207472616e736665722066726f6d20746865207a65726f20616460008201527f6472657373000000000000000000000000000000000000000000000000000000602082015250565b7f45524332303a20617070726f76652066726f6d20746865207a65726f2061646460008201527f7265737300000000000000000000000000000000000000000000000000000000602082015250565b7f45524332303a2064656372656173656420616c6c6f77616e63652062656c6f7760008201527f207a65726f000000000000000000000000000000000000000000000000000000602082015250565b7f45524332303a206d696e7420746f20746865207a65726f206164647265737300600082015250565b61147481611116565b811461147f57600080fd5b50565b61148b81611154565b811461149657600080fd5b5056fea2646970667358221220c4a6883a88f0d924d750a79a02a47e39bbaa2f508c341cd88b052e2abd8d877564736f6c63430008040033",
  "linkReferences": {},
  "deployedLinkReferences": {}
}